{
  "contractName": "MyToken",
  "abi": [
    {
      "inputs": [
        {
          "internalType": "string",
          "name": "name_",
          "type": "string"
        },
        {
          "internalType": "string",
          "name": "symbol_",
          "type": "string"
        },
        {
          "internalType": "string",
          "name": "baseTokenURI_",
          "type": "string"
        },
        {
          "internalType": "string",
          "name": "contractURI_",
          "type": "string"
        }
      ],
      "stateMutability": "nonpayable",
      "type": "constructor"
    },
    {
      "anonymous": false,
      "inputs": [
        {
          "indexed": true,
          "internalType": "address",
          "name": "owner",
          "type": "address"
        },
        {
          "indexed": true,
          "internalType": "address",
          "name": "approved",
          "type": "address"
        },
        {
          "indexed": true,
          "internalType": "uint256",
          "name": "tokenId",
          "type": "uint256"
        }
      ],
      "name": "Approval",
      "type": "event"
    },
    {
      "anonymous": false,
      "inputs": [
        {
          "indexed": true,
          "internalType": "address",
          "name": "owner",
          "type": "address"
        },
        {
          "indexed": true,
          "internalType": "address",
          "name": "operator",
          "type": "address"
        },
        {
          "indexed": false,
          "internalType": "bool",
          "name": "approved",
          "type": "bool"
        }
      ],
      "name": "ApprovalForAll",
      "type": "event"
    },
    {
      "anonymous": false,
      "inputs": [
        {
          "indexed": false,
          "internalType": "address",
          "name": "to",
          "type": "address"
        },
        {
          "indexed": true,
          "internalType": "uint256",
          "name": "tokenId",
          "type": "uint256"
        }
      ],
      "name": "Mint",
      "type": "event"
    },
    {
      "anonymous": false,
      "inputs": [
        {
          "indexed": true,
          "internalType": "address",
          "name": "previousOwner",
          "type": "address"
        },
        {
          "indexed": true,
          "internalType": "address",
          "name": "newOwner",
          "type": "address"
        }
      ],
      "name": "OwnershipTransferred",
      "type": "event"
    },
    {
      "anonymous": false,
      "inputs": [
        {
          "indexed": true,
          "internalType": "address",
          "name": "from",
          "type": "address"
        },
        {
          "indexed": true,
          "internalType": "address",
          "name": "to",
          "type": "address"
        },
        {
          "indexed": true,
          "internalType": "uint256",
          "name": "tokenId",
          "type": "uint256"
        }
      ],
      "name": "Transfer",
      "type": "event"
    },
    {
      "inputs": [
        {
          "internalType": "address",
          "name": "to",
          "type": "address"
        },
        {
          "internalType": "uint256",
          "name": "tokenId",
          "type": "uint256"
        }
      ],
      "name": "approve",
      "outputs": [],
      "stateMutability": "nonpayable",
      "type": "function"
    },
    {
      "inputs": [
        {
          "internalType": "address",
          "name": "owner",
          "type": "address"
        }
      ],
      "name": "balanceOf",
      "outputs": [
        {
          "internalType": "uint256",
          "name": "",
          "type": "uint256"
        }
      ],
      "stateMutability": "view",
      "type": "function",
      "constant": true
    },
    {
      "inputs": [
        {
          "internalType": "uint256",
          "name": "tokenId",
          "type": "uint256"
        }
      ],
      "name": "getApproved",
      "outputs": [
        {
          "internalType": "address",
          "name": "",
          "type": "address"
        }
      ],
      "stateMutability": "view",
      "type": "function",
      "constant": true
    },
    {
      "inputs": [
        {
          "internalType": "address",
          "name": "owner",
          "type": "address"
        },
        {
          "internalType": "address",
          "name": "operator",
          "type": "address"
        }
      ],
      "name": "isApprovedForAll",
      "outputs": [
        {
          "internalType": "bool",
          "name": "",
          "type": "bool"
        }
      ],
      "stateMutability": "view",
      "type": "function",
      "constant": true
    },
    {
      "inputs": [],
      "name": "maxDevMints",
      "outputs": [
        {
          "internalType": "uint256",
          "name": "",
          "type": "uint256"
        }
      ],
      "stateMutability": "view",
      "type": "function",
      "constant": true
    },
    {
      "inputs": [],
      "name": "maxSupply",
      "outputs": [
        {
          "internalType": "uint256",
          "name": "",
          "type": "uint256"
        }
      ],
      "stateMutability": "view",
      "type": "function",
      "constant": true
    },
    {
      "inputs": [],
      "name": "name",
      "outputs": [
        {
          "internalType": "string",
          "name": "",
          "type": "string"
        }
      ],
      "stateMutability": "view",
      "type": "function",
      "constant": true
    },
    {
      "inputs": [],
      "name": "owner",
      "outputs": [
        {
          "internalType": "address",
          "name": "",
          "type": "address"
        }
      ],
      "stateMutability": "view",
      "type": "function",
      "constant": true
    },
    {
      "inputs": [
        {
          "internalType": "uint256",
          "name": "tokenId",
          "type": "uint256"
        }
      ],
      "name": "ownerOf",
      "outputs": [
        {
          "internalType": "address",
          "name": "",
          "type": "address"
        }
      ],
      "stateMutability": "view",
      "type": "function",
      "constant": true
    },
    {
      "inputs": [],
      "name": "price",
      "outputs": [
        {
          "internalType": "uint256",
          "name": "",
          "type": "uint256"
        }
      ],
      "stateMutability": "view",
      "type": "function",
      "constant": true
    },
    {
      "inputs": [],
      "name": "renounceOwnership",
      "outputs": [],
      "stateMutability": "nonpayable",
      "type": "function"
    },
    {
      "inputs": [],
      "name": "royaltiesAddress",
      "outputs": [
        {
          "internalType": "address",
          "name": "",
          "type": "address"
        }
      ],
      "stateMutability": "view",
      "type": "function",
      "constant": true
    },
    {
      "inputs": [],
      "name": "royaltiesPercentage",
      "outputs": [
        {
          "internalType": "uint256",
          "name": "",
          "type": "uint256"
        }
      ],
      "stateMutability": "view",
      "type": "function",
      "constant": true
    },
    {
      "inputs": [
        {
          "internalType": "address",
          "name": "from",
          "type": "address"
        },
        {
          "internalType": "address",
          "name": "to",
          "type": "address"
        },
        {
          "internalType": "uint256",
          "name": "tokenId",
          "type": "uint256"
        }
      ],
      "name": "safeTransferFrom",
      "outputs": [],
      "stateMutability": "nonpayable",
      "type": "function"
    },
    {
      "inputs": [
        {
          "internalType": "address",
          "name": "from",
          "type": "address"
        },
        {
          "internalType": "address",
          "name": "to",
          "type": "address"
        },
        {
          "internalType": "uint256",
          "name": "tokenId",
          "type": "uint256"
        },
        {
          "internalType": "bytes",
          "name": "_data",
          "type": "bytes"
        }
      ],
      "name": "safeTransferFrom",
      "outputs": [],
      "stateMutability": "nonpayable",
      "type": "function"
    },
    {
      "inputs": [
        {
          "internalType": "address",
          "name": "operator",
          "type": "address"
        },
        {
          "internalType": "bool",
          "name": "approved",
          "type": "bool"
        }
      ],
      "name": "setApprovalForAll",
      "outputs": [],
      "stateMutability": "nonpayable",
      "type": "function"
    },
    {
      "inputs": [],
      "name": "symbol",
      "outputs": [
        {
          "internalType": "string",
          "name": "",
          "type": "string"
        }
      ],
      "stateMutability": "view",
      "type": "function",
      "constant": true
    },
    {
      "inputs": [
        {
          "internalType": "address",
          "name": "from",
          "type": "address"
        },
        {
          "internalType": "address",
          "name": "to",
          "type": "address"
        },
        {
          "internalType": "uint256",
          "name": "tokenId",
          "type": "uint256"
        }
      ],
      "name": "transferFrom",
      "outputs": [],
      "stateMutability": "nonpayable",
      "type": "function"
    },
    {
      "inputs": [
        {
          "internalType": "address",
          "name": "newOwner",
          "type": "address"
        }
      ],
      "name": "transferOwnership",
      "outputs": [],
      "stateMutability": "nonpayable",
      "type": "function"
    },
    {
      "inputs": [],
      "name": "contractURI",
      "outputs": [
        {
          "internalType": "string",
          "name": "",
          "type": "string"
        }
      ],
      "stateMutability": "view",
      "type": "function",
      "constant": true
    },
    {
      "inputs": [
        {
          "internalType": "address",
          "name": "to_",
          "type": "address"
        }
      ],
      "name": "devMint",
      "outputs": [],
      "stateMutability": "nonpayable",
      "type": "function"
    },
    {
      "inputs": [],
      "name": "mint",
      "outputs": [],
      "stateMutability": "payable",
      "type": "function",
      "payable": true
    },
    {
      "inputs": [
        {
          "internalType": "uint256",
          "name": "tokenId_",
          "type": "uint256"
        },
        {
          "internalType": "uint256",
          "name": "salePrice_",
          "type": "uint256"
        }
      ],
      "name": "royaltyInfo",
      "outputs": [
        {
          "internalType": "address",
          "name": "receiver",
          "type": "address"
        },
        {
          "internalType": "uint256",
          "name": "donationAmount",
          "type": "uint256"
        }
      ],
      "stateMutability": "view",
      "type": "function",
      "constant": true
    },
    {
      "inputs": [
        {
          "internalType": "bool",
          "name": "isOpen_",
          "type": "bool"
        }
      ],
      "name": "setMintOpen",
      "outputs": [],
      "stateMutability": "nonpayable",
      "type": "function"
    },
    {
      "inputs": [],
      "name": "getMintOpen",
      "outputs": [
        {
          "internalType": "bool",
          "name": "",
          "type": "bool"
        }
      ],
      "stateMutability": "view",
      "type": "function",
      "constant": true
    },
    {
      "inputs": [
        {
          "internalType": "bytes4",
          "name": "interfaceId",
          "type": "bytes4"
        }
      ],
      "name": "supportsInterface",
      "outputs": [
        {
          "internalType": "bool",
          "name": "",
          "type": "bool"
        }
      ],
      "stateMutability": "view",
      "type": "function",
      "constant": true
    },
    {
      "inputs": [
        {
          "internalType": "string",
          "name": "baseTokenURI_",
          "type": "string"
        }
      ],
      "name": "setBaseTokenURI",
      "outputs": [],
      "stateMutability": "nonpayable",
      "type": "function"
    },
    {
      "inputs": [
        {
          "internalType": "string",
          "name": "contractURI_",
          "type": "string"
        }
      ],
      "name": "setContractURI",
      "outputs": [],
      "stateMutability": "nonpayable",
      "type": "function"
    },
    {
      "inputs": [
        {
          "internalType": "address",
          "name": "address_",
          "type": "address"
        }
      ],
      "name": "setRoyaltiesAddress",
      "outputs": [],
      "stateMutability": "nonpayable",
      "type": "function"
    },
    {
      "inputs": [
        {
          "internalType": "uint256",
          "name": "percentage_",
          "type": "uint256"
        }
      ],
      "name": "setRoyaltiesPercentage",
      "outputs": [],
      "stateMutability": "nonpayable",
      "type": "function"
    },
    {
      "inputs": [],
      "name": "totalSupply",
      "outputs": [
        {
          "internalType": "uint256",
          "name": "",
          "type": "uint256"
        }
      ],
      "stateMutability": "view",
      "type": "function",
      "constant": true
    },
    {
      "inputs": [
        {
          "internalType": "uint256",
          "name": "tokenId",
          "type": "uint256"
        }
      ],
      "name": "tokenURI",
      "outputs": [
        {
          "internalType": "string",
          "name": "",
          "type": "string"
        }
      ],
      "stateMutability": "view",
      "type": "function",
      "constant": true
    }
  ],
  "bytecode": "0x6080604052600a6008556003600955661ff973cafa8000600a556001600b60006101000a81548160ff0219169083151502179055503480156200004157600080fd5b50604051620045aa380380620045aa83398181016040528101906200006791906200059f565b838381600090805190602001906200008192919062000352565b5080600190805190602001906200009a92919062000352565b505050620000bd620000b16200018160201b60201c565b6200018960201b60201c565b81600e9080519060200190620000d592919062000352565b5080600f9080519060200190620000ee92919062000352565b50620000ff6200024f60201b60201c565b601060006101000a81548173ffffffffffffffffffffffffffffffffffffffff021916908373ffffffffffffffffffffffffffffffffffffffff160217905550600a6011819055506200015f6380ac58cd60e01b6200027960201b60201c565b62000177632a55205a60e01b6200027960201b60201c565b5050505062000775565b600033905090565b6000600660009054906101000a900473ffffffffffffffffffffffffffffffffffffffff16905081600660006101000a81548173ffffffffffffffffffffffffffffffffffffffff021916908373ffffffffffffffffffffffffffffffffffffffff1602179055508173ffffffffffffffffffffffffffffffffffffffff168173ffffffffffffffffffffffffffffffffffffffff167f8be0079c531659141344cd1fd0a4f28419497f9722a3daafe3b4186f6b6457e060405160405180910390a35050565b6000600660009054906101000a900473ffffffffffffffffffffffffffffffffffffffff16905090565b63ffffffff60e01b817bffffffffffffffffffffffffffffffffffffffffffffffffffffffff19161415620002e5576040517f08c379a0000000000000000000000000000000000000000000000000000000008152600401620002dc90620006ee565b60405180910390fd5b600160076000837bffffffffffffffffffffffffffffffffffffffffffffffffffffffff19167bffffffffffffffffffffffffffffffffffffffffffffffffffffffff1916815260200190815260200160002060006101000a81548160ff02191690831515021790555050565b82805462000360906200073f565b90600052602060002090601f016020900481019282620003845760008555620003d0565b82601f106200039f57805160ff1916838001178555620003d0565b82800160010185558215620003d0579182015b82811115620003cf578251825591602001919060010190620003b2565b5b509050620003df9190620003e3565b5090565b5b80821115620003fe576000816000905550600101620003e4565b5090565b6000604051905090565b600080fd5b600080fd5b600080fd5b600080fd5b6000601f19601f8301169050919050565b7f4e487b7100000000000000000000000000000000000000000000000000000000600052604160045260246000fd5b6200046b8262000420565b810181811067ffffffffffffffff821117156200048d576200048c62000431565b5b80604052505050565b6000620004a262000402565b9050620004b0828262000460565b919050565b600067ffffffffffffffff821115620004d357620004d262000431565b5b620004de8262000420565b9050602081019050919050565b60005b838110156200050b578082015181840152602081019050620004ee565b838111156200051b576000848401525b50505050565b6000620005386200053284620004b5565b62000496565b9050828152602081018484840111156200055757620005566200041b565b5b62000564848285620004eb565b509392505050565b600082601f83011262000584576200058362000416565b5b81516200059684826020860162000521565b91505092915050565b60008060008060808587031215620005bc57620005bb6200040c565b5b600085015167ffffffffffffffff811115620005dd57620005dc62000411565b5b620005eb878288016200056c565b945050602085015167ffffffffffffffff8111156200060f576200060e62000411565b5b6200061d878288016200056c565b935050604085015167ffffffffffffffff81111562000641576200064062000411565b5b6200064f878288016200056c565b925050606085015167ffffffffffffffff81111562000673576200067262000411565b5b62000681878288016200056c565b91505092959194509250565b600082825260208201905092915050565b7f4552433136353a20696e76616c696420696e7465726661636520696400000000600082015250565b6000620006d6601c836200068d565b9150620006e3826200069e565b602082019050919050565b600060208201905081810360008301526200070981620006c7565b9050919050565b7f4e487b7100000000000000000000000000000000000000000000000000000000600052602260045260246000fd5b600060028204905060018216806200075857607f821691505b602082108114156200076f576200076e62000710565b5b50919050565b613e2580620007856000396000f3fe6080604052600436106101e35760003560e01c80638da5cb5b11610102578063cafa8dfe11610095578063e985e9c511610064578063e985e9c5146106c0578063f2fde38b146106fd578063f8004d3114610726578063ffc1831d1461074f576101e3565b8063cafa8dfe14610616578063d5abeb0114610641578063dc95c4a71461066c578063e8a3d48514610695576101e3565b8063a035b1fe116100d1578063a035b1fe1461055c578063a22cb46514610587578063b88d4fde146105b0578063c87b56dd146105d9576101e3565b80638da5cb5b146104b4578063938e3d7b146104df5780639466d2061461050857806395d89b4114610531576101e3565b80632a55205a1161017a57806342842e0e1161014957806342842e0e146103fa5780636352211e1461042357806370a0823114610460578063715018a61461049d576101e3565b80632a55205a1461033f57806330176e131461037d57806332882535146103a657806341ee05f7146103d1576101e3565b80631249c58b116101b65780631249c58b146102b657806318160ddd146102c05780631a9d5d3d146102eb57806323b872dd14610316576101e3565b806301ffc9a7146101e857806306fdde0314610225578063081812fc14610250578063095ea7b31461028d575b600080fd5b3480156101f457600080fd5b5061020f600480360381019061020a91906127ab565b61077a565b60405161021c91906127f3565b60405180910390f35b34801561023157600080fd5b5061023a6107f4565b60405161024791906128a7565b60405180910390f35b34801561025c57600080fd5b50610277600480360381019061027291906128ff565b610886565b604051610284919061296d565b60405180910390f35b34801561029957600080fd5b506102b460048036038101906102af91906129b4565b61090b565b005b6102be610a23565b005b3480156102cc57600080fd5b506102d5610bd7565b6040516102e29190612a03565b60405180910390f35b3480156102f757600080fd5b50610300610be8565b60405161030d9190612a03565b60405180910390f35b34801561032257600080fd5b5061033d60048036038101906103389190612a1e565b610bee565b005b34801561034b57600080fd5b5061036660048036038101906103619190612a71565b610c4e565b604051610374929190612ab1565b60405180910390f35b34801561038957600080fd5b506103a4600480360381019061039f9190612c0f565b610ce1565b005b3480156103b257600080fd5b506103bb610d77565b6040516103c8919061296d565b60405180910390f35b3480156103dd57600080fd5b506103f860048036038101906103f39190612c58565b610d9d565b005b34801561040657600080fd5b50610421600480360381019061041c9190612a1e565b610ed7565b005b34801561042f57600080fd5b5061044a600480360381019061044591906128ff565b610ef7565b604051610457919061296d565b60405180910390f35b34801561046c57600080fd5b5061048760048036038101906104829190612c58565b610fa9565b6040516104949190612a03565b60405180910390f35b3480156104a957600080fd5b506104b2611061565b005b3480156104c057600080fd5b506104c96110e9565b6040516104d6919061296d565b60405180910390f35b3480156104eb57600080fd5b5061050660048036038101906105019190612c0f565b611113565b005b34801561051457600080fd5b5061052f600480360381019061052a91906128ff565b6111a9565b005b34801561053d57600080fd5b5061054661122f565b60405161055391906128a7565b60405180910390f35b34801561056857600080fd5b506105716112c1565b60405161057e9190612a03565b60405180910390f35b34801561059357600080fd5b506105ae60048036038101906105a99190612cb1565b6112c7565b005b3480156105bc57600080fd5b506105d760048036038101906105d29190612d92565b6112dd565b005b3480156105e557600080fd5b5061060060048036038101906105fb91906128ff565b61133f565b60405161060d91906128a7565b60405180910390f35b34801561062257600080fd5b5061062b6113ec565b6040516106389190612a03565b60405180910390f35b34801561064d57600080fd5b506106566113f2565b6040516106639190612a03565b60405180910390f35b34801561067857600080fd5b50610693600480360381019061068e9190612c58565b6113f8565b005b3480156106a157600080fd5b506106aa6114b8565b6040516106b791906128a7565b60405180910390f35b3480156106cc57600080fd5b506106e760048036038101906106e29190612e15565b61154a565b6040516106f491906127f3565b60405180910390f35b34801561070957600080fd5b50610724600480360381019061071f9190612c58565b6115de565b005b34801561073257600080fd5b5061074d60048036038101906107489190612e55565b6116d6565b005b34801561075b57600080fd5b5061076461176f565b60405161077191906127f3565b60405180910390f35b60007f2a55205a000000000000000000000000000000000000000000000000000000007bffffffffffffffffffffffffffffffffffffffffffffffffffffffff1916827bffffffffffffffffffffffffffffffffffffffffffffffffffffffff191614806107ed57506107ec82611786565b5b9050919050565b60606000805461080390612eb1565b80601f016020809104026020016040519081016040528092919081815260200182805461082f90612eb1565b801561087c5780601f106108515761010080835404028352916020019161087c565b820191906000526020600020905b81548152906001019060200180831161085f57829003601f168201915b5050505050905090565b6000610891826117fe565b6108d0576040517f08c379a00000000000000000000000000000000000000000000000000000000081526004016108c790612f55565b60405180910390fd5b6004600083815260200190815260200160002060009054906101000a900473ffffffffffffffffffffffffffffffffffffffff169050919050565b600061091682610ef7565b90508073ffffffffffffffffffffffffffffffffffffffff168373ffffffffffffffffffffffffffffffffffffffff161415610987576040517f08c379a000000000000000000000000000000000000000000000000000000000815260040161097e90612fe7565b60405180910390fd5b8073ffffffffffffffffffffffffffffffffffffffff166109a661186a565b73ffffffffffffffffffffffffffffffffffffffff1614806109d557506109d4816109cf61186a565b61154a565b5b610a14576040517f08c379a0000000000000000000000000000000000000000000000000000000008152600401610a0b90613079565b60405180910390fd5b610a1e8383611872565b505050565b600b60009054906101000a900460ff16610a72576040517f08c379a0000000000000000000000000000000000000000000000000000000008152600401610a69906130e5565b60405180910390fd5b600a54341015610ab7576040517f08c379a0000000000000000000000000000000000000000000000000000000008152600401610aae90613151565b60405180910390fd5b600954600854610ac791906131a0565b610ad1600c61192b565b10610b11576040517f08c379a0000000000000000000000000000000000000000000000000000000008152600401610b0890613220565b60405180910390fd5b6000610b1b6110e9565b73ffffffffffffffffffffffffffffffffffffffff1634604051610b3e90613271565b60006040518083038185875af1925050503d8060008114610b7b576040519150601f19603f3d011682016040523d82523d6000602084013e610b80565b606091505b5050905080610bc4576040517f08c379a0000000000000000000000000000000000000000000000000000000008152600401610bbb906132d2565b60405180910390fd5b610bd4610bcf61186a565b611939565b50565b6000610be3600c61192b565b905090565b60095481565b610bff610bf961186a565b82611997565b610c3e576040517f08c379a0000000000000000000000000000000000000000000000000000000008152600401610c3590613364565b60405180910390fd5b610c49838383611a75565b505050565b600080610c5a846117fe565b610c99576040517f08c379a0000000000000000000000000000000000000000000000000000000008152600401610c90906133d0565b60405180910390fd5b601060009054906101000a900473ffffffffffffffffffffffffffffffffffffffff169150606460115484610cce91906133f0565b610cd89190613479565b90509250929050565b610ce961186a565b73ffffffffffffffffffffffffffffffffffffffff16610d076110e9565b73ffffffffffffffffffffffffffffffffffffffff1614610d5d576040517f08c379a0000000000000000000000000000000000000000000000000000000008152600401610d54906134f6565b60405180910390fd5b80600e9080519060200190610d7392919061269c565b5050565b601060009054906101000a900473ffffffffffffffffffffffffffffffffffffffff1681565b610da561186a565b73ffffffffffffffffffffffffffffffffffffffff16610dc36110e9565b73ffffffffffffffffffffffffffffffffffffffff1614610e19576040517f08c379a0000000000000000000000000000000000000000000000000000000008152600401610e10906134f6565b60405180910390fd5b610e23600d611cd1565b600954610e30600d61192b565b1115610e71576040517f08c379a0000000000000000000000000000000000000000000000000000000008152600401610e6890613562565b60405180910390fd5b600954600854610e819190613582565b610e8b600c61192b565b10610ecb576040517f08c379a0000000000000000000000000000000000000000000000000000000008152600401610ec290613220565b60405180910390fd5b610ed481611939565b50565b610ef2838383604051806020016040528060008152506112dd565b505050565b6000806002600084815260200190815260200160002060009054906101000a900473ffffffffffffffffffffffffffffffffffffffff169050600073ffffffffffffffffffffffffffffffffffffffff168173ffffffffffffffffffffffffffffffffffffffff161415610fa0576040517f08c379a0000000000000000000000000000000000000000000000000000000008152600401610f979061364a565b60405180910390fd5b80915050919050565b60008073ffffffffffffffffffffffffffffffffffffffff168273ffffffffffffffffffffffffffffffffffffffff16141561101a576040517f08c379a0000000000000000000000000000000000000000000000000000000008152600401611011906136dc565b60405180910390fd5b600360008373ffffffffffffffffffffffffffffffffffffffff1673ffffffffffffffffffffffffffffffffffffffff168152602001908152602001600020549050919050565b61106961186a565b73ffffffffffffffffffffffffffffffffffffffff166110876110e9565b73ffffffffffffffffffffffffffffffffffffffff16146110dd576040517f08c379a00000000000000000000000000000000000000000000000000000000081526004016110d4906134f6565b60405180910390fd5b6110e76000611ce7565b565b6000600660009054906101000a900473ffffffffffffffffffffffffffffffffffffffff16905090565b61111b61186a565b73ffffffffffffffffffffffffffffffffffffffff166111396110e9565b73ffffffffffffffffffffffffffffffffffffffff161461118f576040517f08c379a0000000000000000000000000000000000000000000000000000000008152600401611186906134f6565b60405180910390fd5b80600f90805190602001906111a592919061269c565b5050565b6111b161186a565b73ffffffffffffffffffffffffffffffffffffffff166111cf6110e9565b73ffffffffffffffffffffffffffffffffffffffff1614611225576040517f08c379a000000000000000000000000000000000000000000000000000000000815260040161121c906134f6565b60405180910390fd5b8060118190555050565b60606001805461123e90612eb1565b80601f016020809104026020016040519081016040528092919081815260200182805461126a90612eb1565b80156112b75780601f1061128c576101008083540402835291602001916112b7565b820191906000526020600020905b81548152906001019060200180831161129a57829003601f168201915b5050505050905090565b600a5481565b6112d96112d261186a565b8383611dad565b5050565b6112ee6112e861186a565b83611997565b61132d576040517f08c379a000000000000000000000000000000000000000000000000000000000815260040161132490613364565b60405180910390fd5b61133984848484611f1a565b50505050565b606061134a826117fe565b611389576040517f08c379a00000000000000000000000000000000000000000000000000000000081526004016113809061376e565b60405180910390fd5b6000611393611f76565b905060006113a084612008565b905060008251116113c057604051806020016040528060008152506113e3565b81816040516020016113d3929190613816565b6040516020818303038152906040525b92505050919050565b60115481565b60085481565b61140061186a565b73ffffffffffffffffffffffffffffffffffffffff1661141e6110e9565b73ffffffffffffffffffffffffffffffffffffffff1614611474576040517f08c379a000000000000000000000000000000000000000000000000000000000815260040161146b906134f6565b60405180910390fd5b80601060006101000a81548173ffffffffffffffffffffffffffffffffffffffff021916908373ffffffffffffffffffffffffffffffffffffffff16021790555050565b6060600f80546114c790612eb1565b80601f01602080910402602001604051908101604052809291908181526020018280546114f390612eb1565b80156115405780601f1061151557610100808354040283529160200191611540565b820191906000526020600020905b81548152906001019060200180831161152357829003601f168201915b5050505050905090565b6000600560008473ffffffffffffffffffffffffffffffffffffffff1673ffffffffffffffffffffffffffffffffffffffff16815260200190815260200160002060008373ffffffffffffffffffffffffffffffffffffffff1673ffffffffffffffffffffffffffffffffffffffff16815260200190815260200160002060009054906101000a900460ff16905092915050565b6115e661186a565b73ffffffffffffffffffffffffffffffffffffffff166116046110e9565b73ffffffffffffffffffffffffffffffffffffffff161461165a576040517f08c379a0000000000000000000000000000000000000000000000000000000008152600401611651906134f6565b60405180910390fd5b600073ffffffffffffffffffffffffffffffffffffffff168173ffffffffffffffffffffffffffffffffffffffff1614156116ca576040517f08c379a00000000000000000000000000000000000000000000000000000000081526004016116c1906138b7565b60405180910390fd5b6116d381611ce7565b50565b6116de61186a565b73ffffffffffffffffffffffffffffffffffffffff166116fc6110e9565b73ffffffffffffffffffffffffffffffffffffffff1614611752576040517f08c379a0000000000000000000000000000000000000000000000000000000008152600401611749906134f6565b60405180910390fd5b80600b60006101000a81548160ff02191690831515021790555050565b6000600b60009054906101000a900460ff16905090565b600061179182612169565b806117f7575060076000837bffffffffffffffffffffffffffffffffffffffffffffffffffffffff19167bffffffffffffffffffffffffffffffffffffffffffffffffffffffff1916815260200190815260200160002060009054906101000a900460ff165b9050919050565b60008073ffffffffffffffffffffffffffffffffffffffff166002600084815260200190815260200160002060009054906101000a900473ffffffffffffffffffffffffffffffffffffffff1673ffffffffffffffffffffffffffffffffffffffff1614159050919050565b600033905090565b816004600083815260200190815260200160002060006101000a81548173ffffffffffffffffffffffffffffffffffffffff021916908373ffffffffffffffffffffffffffffffffffffffff160217905550808273ffffffffffffffffffffffffffffffffffffffff166118e583610ef7565b73ffffffffffffffffffffffffffffffffffffffff167f8c5be1e5ebec7d5bd14f71427d1e84f3dd0314c0f7b2291e5b200ac8c7c3b92560405160405180910390a45050565b600081600001549050919050565b611943600c611cd1565b600061194f600c61192b565b905061195b828261224b565b807f0f6798a560793a54c3bcfe86a93cde1e73087d944c0ea20544137d41213968858360405161198b919061296d565b60405180910390a25050565b60006119a2826117fe565b6119e1576040517f08c379a00000000000000000000000000000000000000000000000000000000081526004016119d890613949565b60405180910390fd5b60006119ec83610ef7565b90508073ffffffffffffffffffffffffffffffffffffffff168473ffffffffffffffffffffffffffffffffffffffff161480611a5b57508373ffffffffffffffffffffffffffffffffffffffff16611a4384610886565b73ffffffffffffffffffffffffffffffffffffffff16145b80611a6c5750611a6b818561154a565b5b91505092915050565b8273ffffffffffffffffffffffffffffffffffffffff16611a9582610ef7565b73ffffffffffffffffffffffffffffffffffffffff1614611aeb576040517f08c379a0000000000000000000000000000000000000000000000000000000008152600401611ae2906139db565b60405180910390fd5b600073ffffffffffffffffffffffffffffffffffffffff168273ffffffffffffffffffffffffffffffffffffffff161415611b5b576040517f08c379a0000000000000000000000000000000000000000000000000000000008152600401611b5290613a6d565b60405180910390fd5b611b66838383612269565b611b71600082611872565b6001600360008573ffffffffffffffffffffffffffffffffffffffff1673ffffffffffffffffffffffffffffffffffffffff1681526020019081526020016000206000828254611bc191906131a0565b925050819055506001600360008473ffffffffffffffffffffffffffffffffffffffff1673ffffffffffffffffffffffffffffffffffffffff1681526020019081526020016000206000828254611c189190613582565b92505081905550816002600083815260200190815260200160002060006101000a81548173ffffffffffffffffffffffffffffffffffffffff021916908373ffffffffffffffffffffffffffffffffffffffff160217905550808273ffffffffffffffffffffffffffffffffffffffff168473ffffffffffffffffffffffffffffffffffffffff167fddf252ad1be2c89b69c2b068fc378daa952ba7f163c4a11628f55a4df523b3ef60405160405180910390a4505050565b6001816000016000828254019250508190555050565b6000600660009054906101000a900473ffffffffffffffffffffffffffffffffffffffff16905081600660006101000a81548173ffffffffffffffffffffffffffffffffffffffff021916908373ffffffffffffffffffffffffffffffffffffffff1602179055508173ffffffffffffffffffffffffffffffffffffffff168173ffffffffffffffffffffffffffffffffffffffff167f8be0079c531659141344cd1fd0a4f28419497f9722a3daafe3b4186f6b6457e060405160405180910390a35050565b8173ffffffffffffffffffffffffffffffffffffffff168373ffffffffffffffffffffffffffffffffffffffff161415611e1c576040517f08c379a0000000000000000000000000000000000000000000000000000000008152600401611e1390613ad9565b60405180910390fd5b80600560008573ffffffffffffffffffffffffffffffffffffffff1673ffffffffffffffffffffffffffffffffffffffff16815260200190815260200160002060008473ffffffffffffffffffffffffffffffffffffffff1673ffffffffffffffffffffffffffffffffffffffff16815260200190815260200160002060006101000a81548160ff0219169083151502179055508173ffffffffffffffffffffffffffffffffffffffff168373ffffffffffffffffffffffffffffffffffffffff167f17307eab39ab6107e8899845ad3d59bd9653f200f220920489ca2b5937696c3183604051611f0d91906127f3565b60405180910390a3505050565b611f25848484611a75565b611f318484848461226e565b611f70576040517f08c379a0000000000000000000000000000000000000000000000000000000008152600401611f6790613b6b565b60405180910390fd5b50505050565b6060600e8054611f8590612eb1565b80601f0160208091040260200160405190810160405280929190818152602001828054611fb190612eb1565b8015611ffe5780601f10611fd357610100808354040283529160200191611ffe565b820191906000526020600020905b815481529060010190602001808311611fe157829003601f168201915b5050505050905090565b60606000821415612050576040518060400160405280600181526020017f30000000000000000000000000000000000000000000000000000000000000008152509050612164565b600082905060005b6000821461208257808061206b90613b8b565b915050600a8261207b9190613479565b9150612058565b60008167ffffffffffffffff81111561209e5761209d612ae4565b5b6040519080825280601f01601f1916602001820160405280156120d05781602001600182028036833780820191505090505b5090505b6000851461215d576001826120e991906131a0565b9150600a856120f89190613bd4565b60306121049190613582565b60f81b81838151811061211a57612119613c05565b5b60200101907effffffffffffffffffffffffffffffffffffffffffffffffffffffffffffff1916908160001a905350600a856121569190613479565b94506120d4565b8093505050505b919050565b60007f80ac58cd000000000000000000000000000000000000000000000000000000007bffffffffffffffffffffffffffffffffffffffffffffffffffffffff1916827bffffffffffffffffffffffffffffffffffffffffffffffffffffffff1916148061223457507f5b5e139f000000000000000000000000000000000000000000000000000000007bffffffffffffffffffffffffffffffffffffffffffffffffffffffff1916827bffffffffffffffffffffffffffffffffffffffffffffffffffffffff1916145b806122445750612243826123f6565b5b9050919050565b612265828260405180602001604052806000815250612460565b5050565b505050565b600061228f8473ffffffffffffffffffffffffffffffffffffffff166124bb565b156123e9578373ffffffffffffffffffffffffffffffffffffffff1663150b7a026122b861186a565b8786866040518563ffffffff1660e01b81526004016122da9493929190613c89565b6020604051808303816000875af192505050801561231657506040513d601f19601f820116820180604052508101906123139190613cea565b60015b612399573d8060008114612346576040519150601f19603f3d011682016040523d82523d6000602084013e61234b565b606091505b50600081511415612391576040517f08c379a000000000000000000000000000000000000000000000000000000000815260040161238890613b6b565b60405180910390fd5b805181602001fd5b63150b7a0260e01b7bffffffffffffffffffffffffffffffffffffffffffffffffffffffff1916817bffffffffffffffffffffffffffffffffffffffffffffffffffffffff1916149150506123ee565b600190505b949350505050565b60007f01ffc9a7000000000000000000000000000000000000000000000000000000007bffffffffffffffffffffffffffffffffffffffffffffffffffffffff1916827bffffffffffffffffffffffffffffffffffffffffffffffffffffffff1916149050919050565b61246a83836124ce565b612477600084848461226e565b6124b6576040517f08c379a00000000000000000000000000000000000000000000000000000000081526004016124ad90613b6b565b60405180910390fd5b505050565b600080823b905060008111915050919050565b600073ffffffffffffffffffffffffffffffffffffffff168273ffffffffffffffffffffffffffffffffffffffff16141561253e576040517f08c379a000000000000000000000000000000000000000000000000000000000815260040161253590613d63565b60405180910390fd5b612547816117fe565b15612587576040517f08c379a000000000000000000000000000000000000000000000000000000000815260040161257e90613dcf565b60405180910390fd5b61259360008383612269565b6001600360008473ffffffffffffffffffffffffffffffffffffffff1673ffffffffffffffffffffffffffffffffffffffff16815260200190815260200160002060008282546125e39190613582565b92505081905550816002600083815260200190815260200160002060006101000a81548173ffffffffffffffffffffffffffffffffffffffff021916908373ffffffffffffffffffffffffffffffffffffffff160217905550808273ffffffffffffffffffffffffffffffffffffffff16600073ffffffffffffffffffffffffffffffffffffffff167fddf252ad1be2c89b69c2b068fc378daa952ba7f163c4a11628f55a4df523b3ef60405160405180910390a45050565b8280546126a890612eb1565b90600052602060002090601f0160209004810192826126ca5760008555612711565b82601f106126e357805160ff1916838001178555612711565b82800160010185558215612711579182015b828111156127105782518255916020019190600101906126f5565b5b50905061271e9190612722565b5090565b5b8082111561273b576000816000905550600101612723565b5090565b6000604051905090565b600080fd5b600080fd5b60007fffffffff0000000000000000000000000000000000000000000000000000000082169050919050565b61278881612753565b811461279357600080fd5b50565b6000813590506127a58161277f565b92915050565b6000602082840312156127c1576127c0612749565b5b60006127cf84828501612796565b91505092915050565b60008115159050919050565b6127ed816127d8565b82525050565b600060208201905061280860008301846127e4565b92915050565b600081519050919050565b600082825260208201905092915050565b60005b8381101561284857808201518184015260208101905061282d565b83811115612857576000848401525b50505050565b6000601f19601f8301169050919050565b60006128798261280e565b6128838185612819565b935061289381856020860161282a565b61289c8161285d565b840191505092915050565b600060208201905081810360008301526128c1818461286e565b905092915050565b6000819050919050565b6128dc816128c9565b81146128e757600080fd5b50565b6000813590506128f9816128d3565b92915050565b60006020828403121561291557612914612749565b5b6000612923848285016128ea565b91505092915050565b600073ffffffffffffffffffffffffffffffffffffffff82169050919050565b60006129578261292c565b9050919050565b6129678161294c565b82525050565b6000602082019050612982600083018461295e565b92915050565b6129918161294c565b811461299c57600080fd5b50565b6000813590506129ae81612988565b92915050565b600080604083850312156129cb576129ca612749565b5b60006129d98582860161299f565b92505060206129ea858286016128ea565b9150509250929050565b6129fd816128c9565b82525050565b6000602082019050612a1860008301846129f4565b92915050565b600080600060608486031215612a3757612a36612749565b5b6000612a458682870161299f565b9350506020612a568682870161299f565b9250506040612a67868287016128ea565b9150509250925092565b60008060408385031215612a8857612a87612749565b5b6000612a96858286016128ea565b9250506020612aa7858286016128ea565b9150509250929050565b6000604082019050612ac6600083018561295e565b612ad360208301846129f4565b9392505050565b600080fd5b600080fd5b7f4e487b7100000000000000000000000000000000000000000000000000000000600052604160045260246000fd5b612b1c8261285d565b810181811067ffffffffffffffff82111715612b3b57612b3a612ae4565b5b80604052505050565b6000612b4e61273f565b9050612b5a8282612b13565b919050565b600067ffffffffffffffff821115612b7a57612b79612ae4565b5b612b838261285d565b9050602081019050919050565b82818337600083830152505050565b6000612bb2612bad84612b5f565b612b44565b905082815260208101848484011115612bce57612bcd612adf565b5b612bd9848285612b90565b509392505050565b600082601f830112612bf657612bf5612ada565b5b8135612c06848260208601612b9f565b91505092915050565b600060208284031215612c2557612c24612749565b5b600082013567ffffffffffffffff811115612c4357612c4261274e565b5b612c4f84828501612be1565b91505092915050565b600060208284031215612c6e57612c6d612749565b5b6000612c7c8482850161299f565b91505092915050565b612c8e816127d8565b8114612c9957600080fd5b50565b600081359050612cab81612c85565b92915050565b60008060408385031215612cc857612cc7612749565b5b6000612cd68582860161299f565b9250506020612ce785828601612c9c565b9150509250929050565b600067ffffffffffffffff821115612d0c57612d0b612ae4565b5b612d158261285d565b9050602081019050919050565b6000612d35612d3084612cf1565b612b44565b905082815260208101848484011115612d5157612d50612adf565b5b612d5c848285612b90565b509392505050565b600082601f830112612d7957612d78612ada565b5b8135612d89848260208601612d22565b91505092915050565b60008060008060808587031215612dac57612dab612749565b5b6000612dba8782880161299f565b9450506020612dcb8782880161299f565b9350506040612ddc878288016128ea565b925050606085013567ffffffffffffffff811115612dfd57612dfc61274e565b5b612e0987828801612d64565b91505092959194509250565b60008060408385031215612e2c57612e2b612749565b5b6000612e3a8582860161299f565b9250506020612e4b8582860161299f565b9150509250929050565b600060208284031215612e6b57612e6a612749565b5b6000612e7984828501612c9c565b91505092915050565b7f4e487b7100000000000000000000000000000000000000000000000000000000600052602260045260246000fd5b60006002820490506001821680612ec957607f821691505b60208210811415612edd57612edc612e82565b5b50919050565b7f4552433732313a20617070726f76656420717565727920666f72206e6f6e657860008201527f697374656e7420746f6b656e0000000000000000000000000000000000000000602082015250565b6000612f3f602c83612819565b9150612f4a82612ee3565b604082019050919050565b60006020820190508181036000830152612f6e81612f32565b9050919050565b7f4552433732313a20617070726f76616c20746f2063757272656e74206f776e6560008201527f7200000000000000000000000000000000000000000000000000000000000000602082015250565b6000612fd1602183612819565b9150612fdc82612f75565b604082019050919050565b6000602082019050818103600083015261300081612fc4565b9050919050565b7f4552433732313a20617070726f76652063616c6c6572206973206e6f74206f7760008201527f6e6572206e6f7220617070726f76656420666f7220616c6c0000000000000000602082015250565b6000613063603883612819565b915061306e82613007565b604082019050919050565b6000602082019050818103600083015261309281613056565b9050919050565b7f4d696e74696e6720697320636c6f736564000000000000000000000000000000600082015250565b60006130cf601183612819565b91506130da82613099565b602082019050919050565b600060208201905081810360008301526130fe816130c2565b9050919050565b7f4d7573742070617920666f72206d696e74696e67000000000000000000000000600082015250565b600061313b601483612819565b915061314682613105565b602082019050919050565b6000602082019050818103600083015261316a8161312e565b9050919050565b7f4e487b7100000000000000000000000000000000000000000000000000000000600052601160045260246000fd5b60006131ab826128c9565b91506131b6836128c9565b9250828210156131c9576131c8613171565b5b828203905092915050565b7f537570706c79204465706c657465640000000000000000000000000000000000600082015250565b600061320a600f83612819565b9150613215826131d4565b602082019050919050565b60006020820190508181036000830152613239816131fd565b9050919050565b600081905092915050565b50565b600061325b600083613240565b91506132668261324b565b600082019050919050565b600061327c8261324e565b9150819050919050565b7f5472616e73666572204661696c65640000000000000000000000000000000000600082015250565b60006132bc600f83612819565b91506132c782613286565b602082019050919050565b600060208201905081810360008301526132eb816132af565b9050919050565b7f4552433732313a207472616e736665722063616c6c6572206973206e6f74206f60008201527f776e6572206e6f7220617070726f766564000000000000000000000000000000602082015250565b600061334e603183612819565b9150613359826132f2565b604082019050919050565b6000602082019050818103600083015261337d81613341565b9050919050565b7f4552433732313a204e6f6e6578697374656e7420546f6b656e20494400000000600082015250565b60006133ba601c83612819565b91506133c582613384565b602082019050919050565b600060208201905081810360008301526133e9816133ad565b9050919050565b60006133fb826128c9565b9150613406836128c9565b9250817fffffffffffffffffffffffffffffffffffffffffffffffffffffffffffffffff048311821515161561343f5761343e613171565b5b828202905092915050565b7f4e487b7100000000000000000000000000000000000000000000000000000000600052601260045260246000fd5b6000613484826128c9565b915061348f836128c9565b92508261349f5761349e61344a565b5b828204905092915050565b7f4f776e61626c653a2063616c6c6572206973206e6f7420746865206f776e6572600082015250565b60006134e0602083612819565b91506134eb826134aa565b602082019050919050565b6000602082019050818103600083015261350f816134d3565b9050919050565b7f446576206d696e7420737570706c792065786861757374656400000000000000600082015250565b600061354c601983612819565b915061355782613516565b602082019050919050565b6000602082019050818103600083015261357b8161353f565b9050919050565b600061358d826128c9565b9150613598836128c9565b9250827fffffffffffffffffffffffffffffffffffffffffffffffffffffffffffffffff038211156135cd576135cc613171565b5b828201905092915050565b7f4552433732313a206f776e657220717565727920666f72206e6f6e657869737460008201527f656e7420746f6b656e0000000000000000000000000000000000000000000000602082015250565b6000613634602983612819565b915061363f826135d8565b604082019050919050565b6000602082019050818103600083015261366381613627565b9050919050565b7f4552433732313a2062616c616e636520717565727920666f7220746865207a6560008201527f726f206164647265737300000000000000000000000000000000000000000000602082015250565b60006136c6602a83612819565b91506136d18261366a565b604082019050919050565b600060208201905081810360008301526136f5816136b9565b9050919050565b7f4552433732314d657461646174613a2055524920717565727920666f72206e6f60008201527f6e6578697374656e7420746f6b656e0000000000000000000000000000000000602082015250565b6000613758602f83612819565b9150613763826136fc565b604082019050919050565b600060208201905081810360008301526137878161374b565b9050919050565b600081905092915050565b60006137a48261280e565b6137ae818561378e565b93506137be81856020860161282a565b80840191505092915050565b7f2e6a736f6e000000000000000000000000000000000000000000000000000000600082015250565b600061380060058361378e565b915061380b826137ca565b600582019050919050565b60006138228285613799565b915061382e8284613799565b9150613839826137f3565b91508190509392505050565b7f4f776e61626c653a206e6577206f776e657220697320746865207a65726f206160008201527f6464726573730000000000000000000000000000000000000000000000000000602082015250565b60006138a1602683612819565b91506138ac82613845565b604082019050919050565b600060208201905081810360008301526138d081613894565b9050919050565b7f4552433732313a206f70657261746f7220717565727920666f72206e6f6e657860008201527f697374656e7420746f6b656e0000000000000000000000000000000000000000602082015250565b6000613933602c83612819565b915061393e826138d7565b604082019050919050565b6000602082019050818103600083015261396281613926565b9050919050565b7f4552433732313a207472616e73666572206f6620746f6b656e2074686174206960008201527f73206e6f74206f776e0000000000000000000000000000000000000000000000602082015250565b60006139c5602983612819565b91506139d082613969565b604082019050919050565b600060208201905081810360008301526139f4816139b8565b9050919050565b7f4552433732313a207472616e7366657220746f20746865207a65726f2061646460008201527f7265737300000000000000000000000000000000000000000000000000000000602082015250565b6000613a57602483612819565b9150613a62826139fb565b604082019050919050565b60006020820190508181036000830152613a8681613a4a565b9050919050565b7f4552433732313a20617070726f766520746f2063616c6c657200000000000000600082015250565b6000613ac3601983612819565b9150613ace82613a8d565b602082019050919050565b60006020820190508181036000830152613af281613ab6565b9050919050565b7f4552433732313a207472616e7366657220746f206e6f6e20455243373231526560008201527f63656976657220696d706c656d656e7465720000000000000000000000000000602082015250565b6000613b55603283612819565b9150613b6082613af9565b604082019050919050565b60006020820190508181036000830152613b8481613b48565b9050919050565b6000613b96826128c9565b91507fffffffffffffffffffffffffffffffffffffffffffffffffffffffffffffffff821415613bc957613bc8613171565b5b600182019050919050565b6000613bdf826128c9565b9150613bea836128c9565b925082613bfa57613bf961344a565b5b828206905092915050565b7f4e487b7100000000000000000000000000000000000000000000000000000000600052603260045260246000fd5b600081519050919050565b600082825260208201905092915050565b6000613c5b82613c34565b613c658185613c3f565b9350613c7581856020860161282a565b613c7e8161285d565b840191505092915050565b6000608082019050613c9e600083018761295e565b613cab602083018661295e565b613cb860408301856129f4565b8181036060830152613cca8184613c50565b905095945050505050565b600081519050613ce48161277f565b92915050565b600060208284031215613d0057613cff612749565b5b6000613d0e84828501613cd5565b91505092915050565b7f4552433732313a206d696e7420746f20746865207a65726f2061646472657373600082015250565b6000613d4d602083612819565b9150613d5882613d17565b602082019050919050565b60006020820190508181036000830152613d7c81613d40565b9050919050565b7f4552433732313a20746f6b656e20616c7265616479206d696e74656400000000600082015250565b6000613db9601c83612819565b9150613dc482613d83565b602082019050919050565b60006020820190508181036000830152613de881613dac565b905091905056fea264697066735822122095e4089bfa7b32bd6d18919e4a0e66a030f21962cea0cb3bc868d7a1a5184e7064736f6c634300080b0033",
  "immutableReferences": {},
  "source": "// SPDX-License-Identifier: MIT\npragma solidity ^0.8.0;\n\nimport \"@openzeppelin/contracts/token/ERC721/ERC721.sol\";\nimport \"@openzeppelin/contracts/interfaces/IERC2981.sol\";\nimport \"@openzeppelin/contracts/utils/introspection/ERC165Storage.sol\";\nimport \"@openzeppelin/contracts/utils/Context.sol\";\nimport \"@openzeppelin/contracts/utils/Counters.sol\";\nimport \"@openzeppelin/contracts/access/Ownable.sol\";\n\ncontract MyToken is Context, ERC721, Ownable, IERC2981, ERC165Storage {\n    using Counters for Counters.Counter;\n    event Mint(address to, uint256 indexed tokenId);\n\n    // supply and price\n    uint256 public maxSupply = 10;\n    uint256 public maxDevMints = 3;\n    uint256 public price = 0.009 * 10**18;\n\n    // minting open/closed\n    bool private _mintOpen = true;\n\n    // token counters\n    Counters.Counter private _tokenIds;\n    Counters.Counter private _devMints;\n\n    // base token uri\n    string private _baseTokenURI;\n    string private _contractURI;\n\n    // secondary market royalties\n    // (set in constructor)\n    address public royaltiesAddress;\n    uint256 public royaltiesPercentage;\n\n    // Bytes4 Code for ERC interfaces\n    bytes4 private constant _INTERFACE_ID_ERC2981 = 0x2a55205a; // https://eips.ethereum.org/EIPS/eip-2981\n    bytes4 private constant _INTERFACE_ID_ERC721 = 0x80ac58cd; // https://eips.ethereum.org/EIPS/eip-721\n\n    /**\n     * @dev MyToken Constructor\n     * @param name_ - Token Name\n     * @param symbol_ - Token Symbol\n     * @param baseTokenURI_ - Base token metadata URI\n     * @param contractURI_ - Contract metadata URI\n     */\n    constructor(\n        string memory name_,\n        string memory symbol_,\n        string memory baseTokenURI_,\n        string memory contractURI_\n    ) ERC721(name_, symbol_) {\n        _baseTokenURI = baseTokenURI_;\n        _contractURI = contractURI_;\n\n        royaltiesAddress = owner();\n        royaltiesPercentage = 10;\n\n        // register the supported ERC interfaces\n        _registerInterface(_INTERFACE_ID_ERC721);\n        _registerInterface(_INTERFACE_ID_ERC2981);\n    }\n\n    /**\n     * @dev get contractURI\n     * @return the contractURI string\n     */\n    function contractURI() public view returns (string memory) {\n        return _contractURI;\n    }\n\n    /**\n     * @dev (OnlyOwner) Mint a reserved mint token\n     * @param to_ - the receiving address\n     */\n    function devMint(address to_) public onlyOwner {\n        _devMints.increment();\n        require(_devMints.current() <= maxDevMints, \"Dev mint supply exhausted\");\n        require(_tokenIds.current() < maxSupply + maxDevMints, \"Supply Depleted\");\n        _mint(to_);\n    }\n\n    /**\n     * @dev Mint a token\n     */\n    function mint() public payable {\n        require(_mintOpen, \"Minting is closed\");\n        require(msg.value >= price, \"Must pay for minting\");\n        require(_tokenIds.current() < maxSupply - maxDevMints, \"Supply Depleted\");\n        (bool success, ) = owner().call{value: msg.value}(\"\");\n        require(success, \"Transfer Failed\");\n        _mint(_msgSender());\n    }\n\n    /**\n     * @dev Called with the sale price to determine how much royalty is owed and to whom.\n     * @param tokenId_ - the NFT asset queried for royalty information\n     * @param salePrice_ - the sale price of the NFT asset specified by `tokenId`\n     * @return receiver - address of who should be sent the royalty payment\n     * @return donationAmount - the royalty payment amount for `salePrice`\n     */\n    function royaltyInfo(uint256 tokenId_, uint256 salePrice_)\n        external\n        view\n        override(IERC2981)\n        returns (address receiver, uint256 donationAmount)\n    {\n        require(_exists(tokenId_), \"ERC721: Nonexistent Token ID\");\n        receiver = royaltiesAddress;\n        donationAmount = (salePrice_ * royaltiesPercentage) / 100;\n    }\n\n    /**\n     * @dev set public minting open or closed\n     * @param isOpen_  - boolean open or closed\n     */\n    function setMintOpen(bool isOpen_) public onlyOwner {\n        _mintOpen = isOpen_;\n    }\n\n    /**\n     * @dev get mint open or closed\n     */\n    function getMintOpen() public view returns (bool) {\n        return _mintOpen;\n    }\n\n    /**\n     * @dev See {IERC165-supportsInterface}.\n     */\n    function supportsInterface(bytes4 interfaceId)\n        public\n        view\n        virtual\n        override(ERC721, IERC165, ERC165Storage)\n        returns (bool)\n    {\n        return\n            interfaceId == type(IERC2981).interfaceId ||\n            super.supportsInterface(interfaceId);\n    }\n\n    /**\n     * @dev set baseTokenURI\n     */\n    function setBaseTokenURI(string memory baseTokenURI_) public onlyOwner {\n        _baseTokenURI = baseTokenURI_;\n    }\n\n    /**\n     * @dev set contractURI\n     */\n    function setContractURI(string memory contractURI_) public onlyOwner {\n        _contractURI = contractURI_;\n    }\n\n    /**\n     * @dev set royalties address\n     */\n    function setRoyaltiesAddress(address address_) public onlyOwner {\n        royaltiesAddress = address_;\n    }\n\n    /**\n     * @dev set royalty percentage amount\n     */\n    function setRoyaltiesPercentage(uint256 percentage_) public onlyOwner {\n        royaltiesPercentage = percentage_;\n    }\n\n    /**\n     * @dev Get total token supply\n     * @return _tokenID.current() - the current position of the _tokenIDs counter\n     */\n    function totalSupply() external view returns (uint256) {\n        return _tokenIds.current();\n    }\n\n    /**\n     * @dev get tokenURI\n     * @param tokenId - the tokenid\n     * @return the tokenURI string\n     */\n    function tokenURI(uint256 tokenId)\n        public\n        view\n        override\n        returns (string memory)\n    {\n        require(\n            _exists(tokenId),\n            \"ERC721Metadata: URI query for nonexistent token\"\n        );\n        string memory baseTokenURI = _baseURI();\n        string memory id = Strings.toString(tokenId);\n        return\n            bytes(baseTokenURI).length > 0\n                ? string(abi.encodePacked(baseTokenURI, id, \".json\"))\n                : \"\";\n    }\n\n    /**\n     * @dev Get baseTokenURI\n     * @return _baseTokenURI\n     */\n    function _baseURI() internal view virtual override returns (string memory) {\n        return _baseTokenURI;\n    }\n\n    /**\n     * @dev Mint token, emits a Mint event\n     * @param to_ - the receiving address\n     */\n    function _mint(address to_) private {\n        _tokenIds.increment();\n        uint256 tokenId = _tokenIds.current();\n        _safeMint(to_, tokenId);\n        emit Mint(to_, tokenId);\n    }\n}\n",
  "sourcePath": "/Users/gld/_projects/evm-solidity-nft-boilerplate/contracts/MyToken.sol",
  "compiler": {
    "name": "solc",
    "version": "0.8.11+commit.d7f03943.Emscripten.clang"
  },
  "schemaVersion": "3.4.4",
  "updatedAt": "2022-02-02T05:50:18.497Z",
  "networkType": "ethereum",
  "devdoc": {
    "kind": "dev",
    "methods": {
      "approve(address,uint256)": {
        "details": "See {IERC721-approve}."
      },
      "balanceOf(address)": {
        "details": "See {IERC721-balanceOf}."
      },
      "constructor": {
        "details": "MyToken Constructor",
        "params": {
          "baseTokenURI_": "- Base token metadata URI",
          "contractURI_": "- Contract metadata URI",
          "name_": "- Token Name",
          "symbol_": "- Token Symbol"
        }
      },
      "contractURI()": {
        "details": "get contractURI",
        "returns": {
          "_0": "the contractURI string"
        }
      },
      "devMint(address)": {
        "details": "(OnlyOwner) Mint a reserved mint token",
        "params": {
          "to_": "- the receiving address"
        }
      },
      "getApproved(uint256)": {
        "details": "See {IERC721-getApproved}."
      },
      "getMintOpen()": {
        "details": "get mint open or closed"
      },
      "isApprovedForAll(address,address)": {
        "details": "See {IERC721-isApprovedForAll}."
      },
      "mint()": {
        "details": "Mint a token"
      },
      "name()": {
        "details": "See {IERC721Metadata-name}."
      },
      "owner()": {
        "details": "Returns the address of the current owner."
      },
      "ownerOf(uint256)": {
        "details": "See {IERC721-ownerOf}."
      },
      "renounceOwnership()": {
        "details": "Leaves the contract without owner. It will not be possible to call `onlyOwner` functions anymore. Can only be called by the current owner. NOTE: Renouncing ownership will leave the contract without an owner, thereby removing any functionality that is only available to the owner."
      },
      "royaltyInfo(uint256,uint256)": {
        "details": "Called with the sale price to determine how much royalty is owed and to whom.",
        "params": {
          "salePrice_": "- the sale price of the NFT asset specified by `tokenId`",
          "tokenId_": "- the NFT asset queried for royalty information"
        },
        "returns": {
          "donationAmount": "- the royalty payment amount for `salePrice`",
          "receiver": "- address of who should be sent the royalty payment"
        }
      },
      "safeTransferFrom(address,address,uint256)": {
        "details": "See {IERC721-safeTransferFrom}."
      },
      "safeTransferFrom(address,address,uint256,bytes)": {
        "details": "See {IERC721-safeTransferFrom}."
      },
      "setApprovalForAll(address,bool)": {
        "details": "See {IERC721-setApprovalForAll}."
      },
      "setBaseTokenURI(string)": {
        "details": "set baseTokenURI"
      },
      "setContractURI(string)": {
        "details": "set contractURI"
      },
      "setMintOpen(bool)": {
        "details": "set public minting open or closed",
        "params": {
          "isOpen_": "- boolean open or closed"
        }
      },
      "setRoyaltiesAddress(address)": {
        "details": "set royalties address"
      },
      "setRoyaltiesPercentage(uint256)": {
        "details": "set royalty percentage amount"
      },
      "supportsInterface(bytes4)": {
        "details": "See {IERC165-supportsInterface}."
      },
      "symbol()": {
        "details": "See {IERC721Metadata-symbol}."
      },
      "tokenURI(uint256)": {
        "details": "get tokenURI",
        "params": {
          "tokenId": "- the tokenid"
        },
        "returns": {
          "_0": "the tokenURI string"
        }
      },
      "totalSupply()": {
        "details": "Get total token supply",
        "returns": {
          "_0": "_tokenID.current() - the current position of the _tokenIDs counter"
        }
      },
      "transferFrom(address,address,uint256)": {
        "details": "See {IERC721-transferFrom}."
      },
      "transferOwnership(address)": {
        "details": "Transfers ownership of the contract to a new account (`newOwner`). Can only be called by the current owner."
      }
    },
    "version": 1
  },
  "userdoc": {
    "kind": "user",
    "methods": {},
    "version": 1
  }
}